:100000000C9446000C9465000C9465000C946500FB
:100010000C9465000C9465000C9465000C946500CC
:100020000C9465000C9465000C9465000C946500BC
:100030000C9465000C9410020C9465000C946500FF
:100040000C9465000C9465000C9465000C9465009C
:100050000C9465000C9465000C9465000C9465008C
:100060000C9465000C9465000C9465000C9465007C
:100070000C9465000C9465000C9465000C9465006C
:100080000C9465000C9465000C94650011241FBE4F
:10009000CFEFD0E4DEBFCDBF11E0A0E0B1E0ECE1F6
:1000A000F5E000E00BBF02C007900D92AE31B10742
:1000B000D9F721E0AEE1B1E001C01D92A532B2074F
:1000C000E1F70E9470020C948C020C94000040E056
:1000D00050E00CC000002F5F3F4F02C020E030E036
:1000E000273063E03607B4F34F5F5F4F4817590777
:1000F000ACF308959BB19F7B9BB988B98BB18068A5
:100100008BB900008BB18F778BB982E090E00E94B1
:100110006700089581E00E947A000895813120F4FB
:1001200081580E947A00089581550E947A000895AE
:1001300084E690E00E94670088E30E947A0086E0EF
:100140000E947A008FE00E947A0081E00E947A008B
:100150008AE090E00E94670008959BB190649BB98B
:1001600088B98BB180688BB900008BB18F778BB960
:1001700081E090E00E9467000895EF92FF920F9354
:100180001F93CF93DF93182FEB010E948A000EC0BC
:1001900001E0010F812F0E948E007E018FEFE81A8F
:1001A000F80A88810E94AD00102FE7018881811133
:1001B000EFCFDF91CF911F910F91FF90EF900895B6
:1001C000CF93C82F8A3019F48DE00E94E00080910F
:1001D000C00085FFFCCFC093C60080E090E0CF91C7
:1001E000089580B1282F20958091230190912401BA
:1001F00082309105C1F128F4009769F00197B9F0B8
:100200009EC08430910509F473C008F456C0059768
:1002100009F47EC094C081E090E090932401809323
:10022000230180910001805D0E94AD008CC020FF01
:1002300013C084E090E09093240180932301809187
:10024000000190910101009709F47DC001979093FE
:1002500001018093000177C082E090E09093240137
:100260008093230170C020FF14C084E090E090933D
:100270002401809323018091000190910101893034
:10028000910509F460C001969093010180930001EB
:100290005AC08091020190910301019739F483E0E3
:1002A00090E090932401809323014DC081E090E081
:1002B000909324018093230146C020FF12C084E064
:1002C00090E090932401809323018091000190910C
:1002D00001010097C1F10197909301018093000102
:1002E00032C082E090E090932401809323012BC0E0
:1002F00020FF07C084E090E09093240180932301C5
:1003000022C085E090E090932401809323011BC0DC
:1003100020FF0EC00E948A0080910001805D0E9433
:10032000AD0081E090E090932401809323010BC005
:1003300085E090E0909324018093230104C0109203
:100340002401109223018091230190912401823095
:100350009105A1F018F4019739F0089583309105C3
:1003600089F00497C9F0089581E090E0909303012B
:100370008093020185B181E085B9089585B182E05D
:1003800085B9089582E090E0909303018093020183
:1003900085B184E085B908950E948A0080910001AA
:1003A000909101018930910521F0805D0E94AD009E
:1003B000089566E171E081E00E94BD0085E090E073
:1003C000909301018093000108958BE08093810058
:1003D0008DE790E0909389008093880082E080937D
:1003E0006F0010928500109284008091040190911A
:1003F0000501A0910601B091070180931E01909321
:100400001F01A0932001B09321018FB780688FBF97
:10041000089510928100089581E08093220108954B
:100420001F920F920FB60F9211240BB60F922F93BB
:100430003F934F935F936F937F938F939F93AF936C
:10044000BF93EF93FF9380911E0190911F01A091A4
:100450002001B09121010197A109B10980931E01EA
:1004600090931F01A0932001B0932101892B8A2B27
:100470008B2B91F40E940C02809104019091050154
:10048000A0910601B091070180931E0190931F0176
:10049000A0932001B0932101FF91EF91BF91AF9103
:1004A0009F918F917F916F915F914F913F912F918C
:1004B0000F900BBE0F900FBE0F901F90189560937A
:1004C00004017093050180930601909307016093E6
:1004D0001E0170931F0180932001909321010895C4
:1004E00011B88FEF82B984B915B887B918B88AB92D
:1004F0001BB80E9498006CE271E080E090E00E94DE
:100500005F020E94E5010E94F10080912201882390
:0C051000E1F310922201F7CFF894FFCF26
:10051C0005000100010000000000000200000000C6
:0E052C00E0000000000057696E6E657200006E
:00000001FF
